:020000040000FA
:020000001B28BB
:040002000034003492
:080008002700131E112813123A
:100010002000210019309D0070309E009F011D14AA
:10002000090093122000210029309D0070309E00AD
:100030009F011D1409002100683099004E206120A5
:1000400027001116911693018B158B17210019307B
:100050009D0070309E009F011D1421009D149D186D
:100060002F281C08F2007B2073089A20F3007408E4
:100070009A20F40075089A20F500AC207408AC2092
:100080007308AC2044202D286430F100F930F000D2
:100090000000F00B4828F10B4628080022008C01D4
:1000A0008D018E01230000308C0010308D00043053
:1000B0008E002100FB308C003F308D0015308E000B
:1000C00008002400940130309500030120000E1335
:1000D00024009100141C6A28110803019100141CCB
:1000E0006F28110803019100141C742811080301E2
:1000F00020000E170800F501F401F301F235F50DAB
:10010000F235F50DF235F50D0530F4007508033EB6
:100110008919F5007508303E891BF500F235F50D9B
:10012000F30DF40B86287508F400F40E0F30F50576
:10013000F40508000F390B00FC346034DA34F23473
:100140006634B634BE34E034FE34F634EE343E3435
:100150009C347A349E348E3420000E132400910097
:0E016000141CB0281108030120000E1708001F
:020000040001F9
:02000E00E40903
:02001000FF3FB0
:00000001FF
