:020000040000FA
:020000001428C2
:040002000034003492
:080008002700131E0D2813123E
:1000100020007508013AF50009009312F70A0A302A
:1000200077020319F7010900F701F201F301F40166
:100030000130F6000030F500210068309900802082
:10004000932027001116921693018B158B17200011
:100050007B309C009A01FF309B001C152000FC3077
:10006000DE200030DE200030DE207708F800AD20F2
:100070007908CC20F9007A08CC20FA007B08CC2043
:10008000FB000030F2007608013C031977200030B5
:10009000F3007608023C03197A200030F400760859
:1000A000033C03197D206A20911C54289110750887
:1000B000013C0319662868287608043C031971205E
:1000C0007608003C031974206A203528F60A5C285B
:1000D000F6035C287208DE207308DE207408DE2038
:1000E00008000130F60008000330F60008007B0825
:1000F000F20008007B08F30008007B08F400080009
:1001000022008C018D018E01230000308C00103004
:100110008D0004308E002100FB308C003F308D00BC
:1001200015308E0008002400940130309500030142
:1001300020000E1324009100141C9C2811080301B8
:100140009100141CA128110803019100141CA62879
:100150001108030120000E170800FB01FA01F90144
:10016000F835FB0DF835FB0DF835FB0D0530FA00C1
:100170007B08033E8919FB007B08303E891BFB008E
:10018000F835FB0DF90DFA0BB8287B08FA00FA0ECA
:100190000F30FB05FA0508000F390B00FC34603402
:1001A000DA34F2346634B634BE34E034FE34F63435
:1001B000EE343E349C347A349E348E3420000E1358
:1001C00024009100141CE2281108030120000E17DE
:0201D000080025
:020000040001F9
:02000E00E40903
:02001000FF3FB0
:00000001FF
