:020000040000FA
:020000000628D0
:040002000034003492
:0800080000000900210068302E
:1000100099003B2023009E161E151D169C011930C9
:100020009B009D178701113086002300811E162832
:100030001908F0003F307002031D16282328000025
:100040009E1C202816287330362077303620313019
:1000500036203A3036205F30362073303620773005
:100060003620323036203A30362016280000011E65
:1000700037289A00080022008C018D018E01230090
:1000800000308C0010308D0004308E002100FB30D9
:0C0090008C003F308D0015308E00080001
:020000040001F9
:02000E00E40903
:02001000FF3FB0
:00000001FF
