:020000040000FA
:020000000628D0
:040002000034003492
:0800080000000900210068302E
:1000100099003D2050202000F4017408F5006A206A
:1000200076088920F60077088920F700780889206B
:10003000F8009B2077089B2076089B20F3018C1A00
:100040002C280C1E1E28F30B1F28F40AF3010C1A8F
:100050002628F30B27280D28F401F3018C1A2D28EC
:10006000F30B2E280D286430F100F930F000000069
:10007000F00B3728F10B3528080022008C018D0188
:100080008E01230000308C0010308D0004308E0073
:100090002100FB308C003F308D0015308E000800B1
:1000A0002400940130309500030120000E13240039
:1000B0009100141C5928110803019100141C5E289A
:1000C000110803019100141C63281108030120008A
:1000D0000E170800F801F701F601F535F80DF535B2
:1000E000F80DF535F80D0530F7007808033E89194D
:1000F000F8007808303E891BF800F535F80DF60D4C
:10010000F70B75287808F700F70E0F30F805F7059C
:1001100008000F390B00FC346034DA34F2346634F2
:10012000B634BE34E034FE34F634EE343E349C341F
:100130007A349E348E3420000E1324009100141C57
:0C0140009F281108030120000E17080082
:020000040001F9
:02000E00E40903
:02001000FF3FB0
:00000001FF
